{
  "_format": "hh-sol-artifact-1",
  "contractName": "FeeCollector",
  "sourceName": "contracts/FeeCollector.sol",
  "abi": [
    {
      "inputs": [],
      "stateMutability": "nonpayable",
      "type": "constructor"
    },
    {
      "anonymous": false,
      "inputs": [
        {
          "indexed": false,
          "internalType": "uint256",
          "name": "_balance",
          "type": "uint256"
        }
      ],
      "name": "Tsx",
      "type": "event"
    },
    {
      "inputs": [],
      "name": "balance",
      "outputs": [
        {
          "internalType": "uint256",
          "name": "",
          "type": "uint256"
        }
      ],
      "stateMutability": "view",
      "type": "function"
    },
    {
      "inputs": [],
      "name": "owner",
      "outputs": [
        {
          "internalType": "address",
          "name": "",
          "type": "address"
        }
      ],
      "stateMutability": "view",
      "type": "function"
    },
    {
      "inputs": [
        {
          "internalType": "uint256",
          "name": "amount",
          "type": "uint256"
        },
        {
          "internalType": "address payable",
          "name": "destAddr",
          "type": "address"
        }
      ],
      "name": "withdraw",
      "outputs": [],
      "stateMutability": "nonpayable",
      "type": "function"
    },
    {
      "stateMutability": "payable",
      "type": "receive"
    }
  ],
  "bytecode": "0x6080604052600060015534801561001557600080fd5b50336000806101000a81548173ffffffffffffffffffffffffffffffffffffffff021916908373ffffffffffffffffffffffffffffffffffffffff1602179055506105c9806100656000396000f3fe6080604052600436106100375760003560e01c8062f714ce146100955780638da5cb5b146100be578063b69ef8a8146100e957610090565b3661009057346001600082825461004e91906102e7565b925050819055507fc47d99e3b11451e61e09222026d85e135bed133b7c8fd44a7d7da3486e6c9647600154604051610086919061032a565b60405180910390a1005b600080fd5b3480156100a157600080fd5b506100bc60048036038101906100b791906103d4565b610114565b005b3480156100ca57600080fd5b506100d3610284565b6040516100e09190610435565b60405180910390f35b3480156100f557600080fd5b506100fe6102a8565b60405161010b919061032a565b60405180910390f35b60008054906101000a900473ffffffffffffffffffffffffffffffffffffffff1673ffffffffffffffffffffffffffffffffffffffff163373ffffffffffffffffffffffffffffffffffffffff16146101a2576040517f08c379a0000000000000000000000000000000000000000000000000000000008152600401610199906104ad565b60405180910390fd5b6001548211156101e7576040517f08c379a00000000000000000000000000000000000000000000000000000000081526004016101de9061053f565b60405180910390fd5b8073ffffffffffffffffffffffffffffffffffffffff166108fc839081150290604051600060405180830381858888f1935050505015801561022d573d6000803e3d6000fd5b508160016000828254610240919061055f565b925050819055507fc47d99e3b11451e61e09222026d85e135bed133b7c8fd44a7d7da3486e6c9647600154604051610278919061032a565b60405180910390a15050565b60008054906101000a900473ffffffffffffffffffffffffffffffffffffffff1681565b60015481565b6000819050919050565b7f4e487b7100000000000000000000000000000000000000000000000000000000600052601160045260246000fd5b60006102f2826102ae565b91506102fd836102ae565b9250828201905080821115610315576103146102b8565b5b92915050565b610324816102ae565b82525050565b600060208201905061033f600083018461031b565b92915050565b600080fd5b610353816102ae565b811461035e57600080fd5b50565b6000813590506103708161034a565b92915050565b600073ffffffffffffffffffffffffffffffffffffffff82169050919050565b60006103a182610376565b9050919050565b6103b181610396565b81146103bc57600080fd5b50565b6000813590506103ce816103a8565b92915050565b600080604083850312156103eb576103ea610345565b5b60006103f985828601610361565b925050602061040a858286016103bf565b9150509250929050565b600061041f82610376565b9050919050565b61042f81610414565b82525050565b600060208201905061044a6000830184610426565b92915050565b600082825260208201905092915050565b7f4f6e6c79206f776e65722063616e207769746864726177202100000000000000600082015250565b6000610497601983610450565b91506104a282610461565b602082019050919050565b600060208201905081810360008301526104c68161048a565b9050919050565b7f4e6f7420656e6f7567682062616c616e636520746f20636f6d706c617465207460008201527f6869732074737800000000000000000000000000000000000000000000000000602082015250565b6000610529602783610450565b9150610534826104cd565b604082019050919050565b600060208201905081810360008301526105588161051c565b9050919050565b600061056a826102ae565b9150610575836102ae565b925082820390508181111561058d5761058c6102b8565b5b9291505056fea264697066735822122079d7b93ebcea192cdc685e6a1a743d0ac06eff30f7491340d70493292c586a8264736f6c63430008110033",
  "linkReferences": {},
  "deployedLinkReferences": {}
}