{
  "_format": "hh-sol-artifact-1",
  "contractName": "FeeCollector",
  "sourceName": "contracts/FeeCollector.sol",
  "abi": [
    {
      "inputs": [],
      "stateMutability": "nonpayable",
      "type": "constructor"
    },
    {
      "anonymous": false,
      "inputs": [],
      "name": "Tsx",
      "type": "event"
    },
    {
      "inputs": [],
      "name": "balance",
      "outputs": [
        {
          "internalType": "uint256",
          "name": "",
          "type": "uint256"
        }
      ],
      "stateMutability": "view",
      "type": "function"
    },
    {
      "inputs": [],
      "name": "owner",
      "outputs": [
        {
          "internalType": "address",
          "name": "",
          "type": "address"
        }
      ],
      "stateMutability": "view",
      "type": "function"
    },
    {
      "inputs": [
        {
          "internalType": "uint256",
          "name": "amount",
          "type": "uint256"
        },
        {
          "internalType": "address payable",
          "name": "destAddr",
          "type": "address"
        }
      ],
      "name": "withdraw",
      "outputs": [],
      "stateMutability": "nonpayable",
      "type": "function"
    },
    {
      "stateMutability": "payable",
      "type": "receive"
    }
  ],
  "bytecode": "0x6080604052600060015534801561001557600080fd5b50336000806101000a81548173ffffffffffffffffffffffffffffffffffffffff021916908373ffffffffffffffffffffffffffffffffffffffff1602179055506105af806100656000396000f3fe6080604052600436106100375760003560e01c8062f714ce146100885780638da5cb5b146100b1578063b69ef8a8146100dc57610083565b3661008357346001600082825461004e91906102cd565b925050819055507fe8ca648f4e3850fb2fa4a3d22ca5c472fdf9b8fc12cd96baa1d727186efd5bf060405160405180910390a1005b600080fd5b34801561009457600080fd5b506100af60048036038101906100aa9190610390565b610107565b005b3480156100bd57600080fd5b506100c661026a565b6040516100d391906103f1565b60405180910390f35b3480156100e857600080fd5b506100f161028e565b6040516100fe919061041b565b60405180910390f35b60008054906101000a900473ffffffffffffffffffffffffffffffffffffffff1673ffffffffffffffffffffffffffffffffffffffff163373ffffffffffffffffffffffffffffffffffffffff1614610195576040517f08c379a000000000000000000000000000000000000000000000000000000000815260040161018c90610493565b60405180910390fd5b6001548211156101da576040517f08c379a00000000000000000000000000000000000000000000000000000000081526004016101d190610525565b60405180910390fd5b8073ffffffffffffffffffffffffffffffffffffffff166108fc839081150290604051600060405180830381858888f19350505050158015610220573d6000803e3d6000fd5b5081600160008282546102339190610545565b925050819055507fe8ca648f4e3850fb2fa4a3d22ca5c472fdf9b8fc12cd96baa1d727186efd5bf060405160405180910390a15050565b60008054906101000a900473ffffffffffffffffffffffffffffffffffffffff1681565b60015481565b6000819050919050565b7f4e487b7100000000000000000000000000000000000000000000000000000000600052601160045260246000fd5b60006102d882610294565b91506102e383610294565b92508282019050808211156102fb576102fa61029e565b5b92915050565b600080fd5b61030f81610294565b811461031a57600080fd5b50565b60008135905061032c81610306565b92915050565b600073ffffffffffffffffffffffffffffffffffffffff82169050919050565b600061035d82610332565b9050919050565b61036d81610352565b811461037857600080fd5b50565b60008135905061038a81610364565b92915050565b600080604083850312156103a7576103a6610301565b5b60006103b58582860161031d565b92505060206103c68582860161037b565b9150509250929050565b60006103db82610332565b9050919050565b6103eb816103d0565b82525050565b600060208201905061040660008301846103e2565b92915050565b61041581610294565b82525050565b6000602082019050610430600083018461040c565b92915050565b600082825260208201905092915050565b7f4f6e6c79206f776e65722063616e207769746864726177202100000000000000600082015250565b600061047d601983610436565b915061048882610447565b602082019050919050565b600060208201905081810360008301526104ac81610470565b9050919050565b7f4e6f7420656e6f7567682062616c616e636520746f20636f6d706c617465207460008201527f6869732074737800000000000000000000000000000000000000000000000000602082015250565b600061050f602783610436565b915061051a826104b3565b604082019050919050565b6000602082019050818103600083015261053e81610502565b9050919050565b600061055082610294565b915061055b83610294565b92508282039050818111156105735761057261029e565b5b9291505056fea264697066735822122034932b5c7a5ec1c96b0312e0c85c7d738664d4b2ab9befab5674644f7ba2e78864736f6c63430008110033",
  "linkReferences": {},
  "deployedLinkReferences": {}
}